:02000300304883
:020005003027A2
:020007002F5C6C
:0200090027DEF0
:03000000022A527F
:102A520078FFE4F6D8FD9000007FFF7E04E4F0A347
:0A2A6200DFFCDEFA75812A022AA7C4
:03000B0002168951
:10168400C2AF80FE3212168885D00B75D008FAC21C
:101694008CE58A24A1F58AE58C34A9F58CD28CECEE
:1016A400241AF8E6BC030274FFC39581B414004005
:1016B400CF7904782316E608700BC2AFE630E10355
:1016C4004418F6D2AF08D9EDEA8BD0300F03D2100C
:1016D40022D50DFAC0E0C0D0C0F0C083C082C000E3
:1016E400C001C002C003C004C005C006C007E50CA9
:1016F400232424F87440C2AF46F6D2AFD20FE50CCF
:10170400FF232424F80F0808EFB50C061010034338
:101714008701BF04047F007824E630E4E800E50C88
:10172400C39F5020050C7419250CF8E6FDA681080A
:10173400E6AE0CBE030274FFCDF8E86D60E008E687
:10174400C0E080F6E50CD39F4027E50C241AF8E6A8
:10175400AE0CBE030274FFFD18E6CDF8E5816D60A2
:1017640006D0E0F61880F5E50C2419C8F6150C80AF
:10177400D3750D05E50C232424F87F04C2AFE610CD
:02178400E61E5F
:1017860030E00310E20C7F0030E10730E3047F080D
:1017960054F4C2E7C6D2AF54804207C20F22F6D233
:1017A600AFD007D006D005D004D003D002D001D0E8
:1017B60000D082D083D0F0D0D0D0E0C20F227819EA
:1017C600A68174036006FF0876FFDFFB7F04E478DA
:1017D60023F608F608DFFA782476309000037401C1
:1017E60093C0E0E493C0E0750D05438901758A9ABC
:0B17F600758CA9D28CD2AFD2A92203BF
:102F8A00E8ADA6E68AA53A20E6B8A9E5BAA6E8BF5A
:102F9A0087E9AB982100E8ADA6E68AA53A20E4BE07
:0C2FAA009BE794B5E5BC82E5B8B82100B7
:0C21DD00C10EC10DC10BC18C41018E1E52
:10304800438E80123002D2ACD2AF7F011218017FBA
:0E305800021218017F03121801E4FF02188A09
:10302700E490009EF0F0E4FBFA7DC87F02121913CA
:0F30370090009EE004F0E0C3940A40EA122416D1
:0230460080DF29
:102F5C00E49000A8F0300B04B2918002D291E4907E
:102F6C0000A8F09000A8E0C3940A50E4E4FBFA7DBA
:0E2F7C00327F021219139000A8E004F080E5E5
:1027DE00122AECE4FBFA7DC87F021219133011F3B2
:0327EE0012209B1B
:1027F100E49000A9F0F0E4FBFA7D647F0212191362
:102801009000A9E004F0E0C3940A40EA1219723082
:102811000C48200E453011421230C3C004C005C01F
:1028210006C00790018EE0FF3395E0FEEF2405FD21
:10283100E43EFC1201AAA804A905AA06AB07D00729
:10284100D006D005D00412012C500F7BFF7A2F79CE
:102851008A122E84D20ED20B8096300C23200D20AA
:1028610020921DE4FBFA7D197F0212191320928038
:102871007BFF7A2F79A0122E84D20DD20B0227F181
:102881001230C3C004C005C006C00790018EE0FC31
:102891001201AFA804A905AA06AB07D007D006D03C
:1028A10005D00412012C50030227F12092030227C4
:0728B100F1C20EC20DC20BC3
:0328B8000227F103
:1021E900609E0000000000000000000000000000E8
:1021F90000000000000000000000000000000000D6
:1022090000000000000000000000000000000000C5
:1022190000000000000000000000000000000000B5
:1022290000000000000000000000000000000000A5
:102239000000000000000000000000000000000095
:102249000000000000000000000000000000000085
:102259000000000000000000000000000000000075
:102269000000000000000000000000000000000065
:102279000000000000000000000000000000000055
:02228900000053
:10300200438780759850438E40538EFE53890F43F9
:103012008920758BF4758DF4C2ABD28EE5A2543F34
:053022004440F5A2226C
:103066007E007F9B7D007B017A007900120AADE429
:0730760090009BF0A3F02283
:0F30A5008F9990009D7401F090009DE070FA22C9
:03002300022D9714
:102D9700C0E0C083C082C0D075D000C0073098366D
:102DA700C29890009BE0C3949A502BE0FF04F07404
:102DB700002FF582E43400F583E599F090009BE05D
:102DC7002400F582E43400F583E4F0E599B40A06BB
:102DD70090009CE004F0309907C29990009DE4F0C0
:0B2DE700D007D0D0D082D083D0E032E3
:05311B000000000000AF
:10228B00C11144018A0000000044018600000000D7
:043116007F03DFFE56
:01311A002292
:083105007F017EA2DEFEDFFC6B
:01310D00229F
:0A30F00000007F167E80DEFEDFFC8C
:0130FA0022B3
:102E3E00E4FDFCE4FBFA2090110BBB00010A1231F9
:102E4E0016C3EB9432EA940040EC123105A290E4E2
:102E5E0033F9E4FAFB3090110BBB00010A12311664
:102E6E00C3EB94E8EA940340ECED25E049FD0CEC4D
:052E7E00B408C0AF051F
:012E8300222C
:10241600E490009FF0A3F0FDFCC2901230F0D29041
:0924260012310530900302251665
:10242F0078A17C000D7BFF7A31791BFE7F051206A8
:10243F0058E4FCFD2090180DBD00010C1231160D53
:10244F00ED70010CD39464EC940040E8C21122E4C7
:10245F00FCFD3090140DBD00010C123116D3ED941C
:10246F0064EC940040ECC21122E490009FF0122E15
:10247F003E90009FE024A1F582E43400F583EFF055
:10248F0090009FE004F0E0C3940540E29000A2E0CA
:10249F00FF9000A1E0F92FFF9000A3E02FFFA3E032
:0D24AF002FFF9000A0F09000A5E06F705886
:1024BC00A3F0A3F0E9FE9000A2E0FDEDFF9000A6D2
:1024CC00EEF0A3EFF0AC06EC1201AA7BCD7ACC793E
:1024DC00CC783D12002690018A12077A9000A3E076
:1024EC00FEA3E0FDEDFF9000A6EEF0A3EFF0AC062E
:1024FC00EC1201AA7BCD7ACC79CC783D12002690D7
:07250C00018612077AD211CB
:0325130022C211D0
:0125160022A2
:0F30B40090018AE0FCA3E0FDA3E0FEA3E0FF2271
:0F30C300900186E0FCA3E0FDA3E0FEA3E0FF2266
:100FAC00E5BC82E5B8B800E6ADA3E5B8B800E8B694
:100FBC0085E697B60041540D0A004F4B004154454D
:100FCC00300D0A0041542B4353510D0A0041542B50
:100FDC004350494E3D3F0D0A0041542B434F505353
:100FEC003F0D0A004348494E410041542B43504D9C
:100FFC00533F0D0A0041542B434D47463D300D0ADB
:10100C000041542B434D4744413D360D0A00415499
:10101C002B434D47463D310D0A0041542B4353435E
:10102C00533D2255435332220D0A0041542B435356
:10103C0043413F0D0A0041542B43534D503D313732
:10104C002C3136372C302C32350D0A0041542B43C1
:10105C004D47533D2200220D0A003E000A0000318C
:10106C00333400313335003133360031333700310E
:10107C0033380031333900313530003135310031FE
:10108C0035370031353800313539003138320031DF
:10109C0038370031383800313330003133310031DA
:1010AC0033320031353200313535003135360031CF
:1010BC0038350031383600313333003133343900B0
:1010CC00313533003138300031383900E4BCA0E61A
:1010DC00849FE599A83A00E78AB6E680813A20E831
:1010EC00BF9EE68EA5257300E6B8A9E5BAA63A2000
:1010FC0025342E3166E2848300E6B9BFE5BAA63A00
:10110C002025342E31662525524800E794B5E6BAE1
:10111C00903A00E78AB6E680813A20E4BE9BE794D9
:10112C00B5257300E8AEBEE7BDAE3A00E99888E598
:10113C0080BC3A20253464E28483002B43504D5309
:10114C003A2022534D222C300041542B434D475210
:10115C003D310D0A00E69FA5E8AFA200E585B3E995
:10116C0097ADE79FADE4BFA1E68AA5E8ADA600E682
:10117C008F90E7A4BA3A20E79FADE4BFA1E68AA519
:10118C00E8ADA6E5B7B2E585B3E997AD2100E5BCBE
:10119C0080E590AFE79FADE4BFA1E68AA5E8ADA6D8
:1011AC0000E68F90E7A4BA3A20E79FADE4BFA1E632
:1011BC008AA5E8ADA6E5B7B2E5BC80E590AF210005
:1011CC00E68DA2E58FB7EFBC9A00E68F90E7A4BA44
:1011DC003A20E68DA2E58FB7E68890E58A9F21003C
:1011EC00E68F90E7A4BA3A20E68DA2E58FB7E5A486
:1011FC00B1E8B4A5EFBC8CE8AFB7E6A380E69FA539
:10120C00E8BE93E585A5E6898BE69CBAE58FB7E643
:10121C0098AFE590A6E6ADA3E7A1AE2100E99888CA
:10122C00E580BCE8AEBEE7BDAEEFBC9A00E998889D
:10123C00E580BCE8AEBEE7BDAEEFBC9A256400E627
:10124C008F90E7A4BA3A20E99888E580BCE8AEBE56
:10125C00E7BDAEE68890E58A9F2100E68F90E7A473
:10126C00BA3A20E99888E580BCE8AEBEE7BDAEE5A9
:10127C00A4B1E8B4A5EFBC8CE8AFB7E6A380E69FB9
:10128C00A5E8BE93E585A5E6B8A9E5BAA6E99888D0
:10129C00E580BCE698AFE590A6E6ADA3E7A1AE214C
:1012AC0000FF0FACFF0FB3FF0FBAFF0FB3FF106BB4
:1012BC00FF106FFF1073FF1077FF107BFF107FFF85
:1012CC001083FF1087FF108BFF108FFF1093FF1000
:1012DC0097FF109BFF109FFF10A3FF10A7FF10ABF1
:1012EC00FF10AFFF10B3FF10B7FF10BBFF10BFFF15
:1012FC0010C3FF10C7FF10CCFF10D0FF10D400009C
:10130C0000000000000000000000000000000000D1
:0E131C000000000000000000000000000000C3
:10229B00606401220000000000000000000000004C
:1022AB000000000000000000000000000000000023
:1022BB000000000000000000000000000000000013
:1022CB000000000000000000000000000000000003
:1022DB0000000000000000000000000000000000F3
:1022EB0000000000000000000000000000000000E3
:1022FB0000000000000000004C011631353835306D
:07230B00303134393738008E
:0E30D20000007F017ED87D23DDFEDEFCDFFAEC
:0130E00022CD
:0F30E1007E007F647D007B017A017922020AADB7
:102F2A009000D8EBF0A3EAF0A3E9F09000D8E0F91A
:102F3A00A3E0FAA3E09000DEC9F0A3EAF0A3E9F067
:102F4A007B017A007900122993E94A4B7002C32265
:022F5A00D32280
:082B7600A3F07BFF7A0F79F652
:0B2B7E009000CFEBF0A3EAF0A3E9F019
:102B8900E49000D6F0A3F0123066E49000D6F090FD
:102B990000CFE0FBA3E0FAA3E0F9120B94E4900064
:102BA900D7F09000D5E0FF90009CE0C39F501590AE
:102BB90000D7E0FF04F0EFC394C850081230D2E008
:102BC90004F080DE9000D2E0FBA3E0FAA3E0F91262
:102BD9002F2A5001221230669000D6E004F0E0C39B
:082BE900940540AB123066C3F5
:012BF10022C1
:102AEC009000D274FFF0A3740FF0A374C6F0A3741B
:102AFC0003F07BFF7A0F79C1122B7E9000D274FF0A
:102B0C00F0A3740FF0A374C6F0A37403F07BFF7AE8
:102B1C000F79C9122B7E9000D274FFF0A3740FF0C2
:102B2C00A374C6F0A37405F07BFF7A0F79D0122B37
:102B3C007E9000D274FFF0A3740FF0A374C6F0A3C0
:102B4C007403F07BFF7A0F79D9122B7E9000D2742C
:102B5C00FFF0A3740FF0A374F0F0A37405F07BFFE7
:0A2B6C007A0F79E5122B7E022DF29C
:102DF2009000D274FFF0A3740FF0A374C6F07406AF
:102E0200122B769000D274FFF0A3740FF0A374C655
:102E1200F0A37403F07BFF7A107901122B7E9000ED
:102E2200D274FFF0A3740FF0A374C6F0A37403F07E
:0C2E32007BFF7A10790D122B7E023066B7
:102E84009000AFEBF0A3EAF0A3E9F01228BB9000A6
:102E9400D57401F0A37401F0A37422F0A3E4F0A3A9
:102EA4007464F09000AFE0FBA3E0FAA3E0F912250C
:0D2EB400177B017A017922120B94022FB6D0
:1028BB009000D274FFF0A3740FF0A374C6F0A3744E
:1028CB0002F07BFF7A10791A122B7E9000D274FFE4
:1028DB00F0A3740FF0A374C6F0A37402F07BFF7A1D
:1028EB00107926122B7E9000D274FFF0A3740FF098
:1028FB00A374C6F0A37402F07BFF7A107937122B06
:10290B007E9000D274FFF0A3740FF0A374C6F0A3F3
:10291B007402F07BFF7A107942122B7E1230E19019
:10292B0000E974FFF0A37410F0A37458F07B017AE4
:10293B00017922122C639000D57401F0A37401F07D
:10294B00A37422F0A3E4F0A37464F07B017A017901
:10295B00161225179000E974FFF0A37410F0A374FE
:10296B0062F07B017A017922122C639000D274FF02
:10297B00F0A37410F0A37466F0A37401F0FB7A015A
:08298B007922122B7E0230E1DB
:062D36007B017A0079AF79
:102D3C009000CFEBF0A3EAF0A3E9F01230E19000A1
:102D4C00D57401F0A37401F0A37422F0A3E4F0A3F2
:102D5C007464F09000CFE0FBA3E0FAA3E0F9122535
:102D6C00179000D57401F0A37401F0A37422F0A3A2
:102D7C00E4F0A37464F07BFF7A1079681225177B5A
:0B2D8C00017A017922120B940230E161
:102FB6001230661230E17F1A1230A59000D274FFEB
:102FC600F0A3740FF0A374C6F0A37403F07BFF7A2A
:062FD60010796A022B7E57
:0B2BF2009000B2EBF0A3EAF0A3E9F0C2
:102BFD00E4A3F012000EEF640B4E6002C322E490CA
:102C0D0000B5F09000B5E0FFC3941B503EEF75F09A
:102C1D0003A424B9F582E43412F583E493FB740123
:102C2D0093FA740293F9C003C0029000B2E0FBA3C3
:102C3D00E0FAA3E0F8AC02AD03D002D0031209A76D
:102C4D00EF70089000B5E004F080B89000B5E0B4E6
:052C5D001B02C322D39D
:012C6200224F
:102EF7009000AFEBF0A3EAF0A3E9F09000AFE0FB9E
:102F0700A3E0FAA3E0F9122BF2501678167C017DA4
:102F1700019000AFE0FBA3E0FAA3E0F9120A90D317
:032F270022C322A0
:10209B0078AF7C007D017BFF7A13790A7E007F206D
:1020AB001206581228BB7BFF7A1079D8122D3C9060
:1020BB0000E974FFF0A37410F0A374E3F0A211E431
:1020CB00339012B375F0031207B7E475F003A42530
:1020DB0083F583E493F9740193FA7402939000EC03
:1020EB00C9F0A3EAF0A3E9F07B017A0079AF120BF8
:1020FB008E122D363011461230C39000EC12077A37
:10210B009000E974FFF0A37410F0A374F4F07B015A
:10211B007A0079AF120B8E122D361230B49000EC80
:10212B0012077A9000E974FFF0A37411F0A3740501
:10213B00F07B017A0079AF120B8E122D367BFF7A72
:10214B0010796A122D3C7BFF7A117917122D3C9076
:10215B0000E974FFF0A37411F0A3741FF0A292E4D2
:10216B00339012AD75F0031207B7E475F003A42595
:10217B0083F583E493F9740193FA7402939000EC62
:10218B00C9F0A3EAF0A3E9F07B017A0079AF120B57
:10219B008E122D367BFF7A10796A122D3C7BFF7ADB
:1021AB00117930122D3C9000E974FFF0A37411F0FB
:1021BB00A37438F090018EE0FE3395E09000ECF0C4
:1021CB00A3CEF07B017A0079AF120B8E122D360263
:0221DB002FB61D
:101972009000D274FFF0A3740FF0A374C6F0740544
:10198200122B7690009CE0C394045003021C5F90DB
:1019920000DE74FFF0A37411F0A37447F07B017AA8
:0E19A200007900122993E94A4B6003021C5F92
:1019B000F99000AAC9F0A3F0A3E9F01230669000F4
:1019C000D274FFF0A3740FF0A374C6F0A37405F0F3
:1019D0007BFF7A117955122B7E1230E19000D5747D
:1019E00001F0A37401F0A37422F0A3E4F0A37464E3
:1019F000F07BFF7A1179611225179000DE7401F0F7
:101A0000A37401F0A37422F07B017A0079001229FB
:101A1000939000AAEBF0A3EAF0A3E9F09000AAE00B
:101A2000FBA3E0FAA3E04A4B600612209B021C567F
:101A30001230E19000D57401F0A37401F0A3742278
:101A4000F0A3E4F0A37464F07BFF7A1179681225A7
:101A5000179000DE7401F0A37401F0A37422F07BF0
:101A6000017A0079001229939000AAEBF0A3EAF022
:101A7000A3E9F09000AAE0FBA3E0FAA3E04A4B60E0
:101A80000BC20C7BFF7A11797B021C531230E19060
:101A900000D57401F0A37401F0A37422F0A3E4F064
:101AA000A37464F07BFF7A11799A1225179000DEF7
:101AB0007401F0A37401F0A37422F07B017A007921
:101AC000001229939000AAEBF0A3EAF0A3E9F090AA
:101AD00000AAE0FBA3E0FAA3E04A4B600BD20C7B28
:101AE000FF7A1179AD021C531230E19000D57401D8
:101AF000F0A37401F0A37422F0A3E4F0A37464F0E3
:101B00007BFF7A1179CC1225179000DE7401F0A3C7
:101B10007401F0A37422F07B017A007900122993FA
:101B20009000AAEBF0A3EAF0A3E9F09000AAE0FB92
:101B3000A3E0FAA3E04A4B60461230E19000AAE02D
:101B4000FBA3E0FAA3E0240CF9E43AFA9000B274A3
:101B500001F0A37401F0A37422F0A3E4F0A3746471
:101B6000F0121F267B017A017922122EF77BFF509B
:101B7000077A1179D6021C537A1179EC021C5312A0
:101B800030E19000D57401F0A37401F0A37422F049
:101B9000A3E4F0A37464F07BFF7A1279291225176D
:101BA0009000DE7401F0A37401F0A37422F07B01B5
:101BB0007A0079001229939000AAEBF0A3EAF0A32F
:101BC000E9F09000AAE0FBA3E0FAA3E04A4B70031F
:031BD000021C569E
:101BD300A3E4F0A37464F01230E19000B27401F056
:101BE300A37401F0A37422F0A3E4F0A37464F0904F
:101BF30000AAE0FBA3E0FAA3E0F9121F269000C6B7
:101C030074FFF0A37412F0A37439F0A37401F0A36A
:101C13007400F0A374ADF07B017A0179221213B33F
:101C23009000ADE0FEA3E0FFC394D8EE6480947F00
:101C33004018D3EF9450EE64809480500D90018E41
:101C4300EFF07BFF7A12794B80067BFF7A1279677C
:031C5300122E84CA
:091C5600122DF21230661230E189
:011C5F002262
:102EC1002530345800255800000000000000007F24
:102ED1000000C0800000DFBF00E0808000EFBFBFC6
:102EE100F0808080F7BFBFBF00000000000000003D
:062EF100000000000000DB
:10231300E49000ECF0A3EBF0A3EAF0A3E9F0A3123E
:10232300078600000000E49000ECF09000ECE0C3AE
:1023330094047480948040030224139000F0E0FC22
:10234300A3E0FDA3E0FEA3E0FF780812073D9000A1
:10235300F012077A9000F0E0F8A3E0F9A3E0FAA303
:10236300E0FBC000C001C002C0039000EDE0FBA38E
:10237300E0FAA3E0F99000ECE0F582758300120621
:1023830097FFD003D002D001D000EB4FFFEAFEE964
:10239300FDE8FC9000F012077A9000ECE075F0087D
:1023A300A424C9F582E4342EF58312076A9000F061
:1023B300E0F8A3E0F9A3E0FAA3E0FBC31207194096
:1023C300469000ECE075F008A424CDF582E4342EA9
:1023D300F58312076A9000F0E0F8A3A3A3E0D312F9
:1023E300071950239000F0E0FCA3E0FDA3E0FEA357
:1023F300E0FF9000E9E0FBA3E0FAA3E0F912075045
:102403009000ECE004FF229000ECE004F002232EA5
:022413007F0048
:0124150022A4
:0626FA009000E612077AD1
:1027000078EA7C007D017BFF7A2E79E97E007F04E8
:10271000120658E49000EEF0A3F09000E6E0FCA36F
:10272000E0FDA3E0FEA3E0FF781812072AA3EFF074
:102730009000E6E0FCA3E0FDA3E0FEA3E0FF78103C
:1027400012072A9000EBEFF09000E6E0FCA3E0FD1A
:10275000A3E0FEA3E0FF780812072A9000ECEFF058
:102760009000E6A3A3A3E0FF9000EDEFF09000EA55
:10277000E0FF7E007013A3E0700FA3E0700BA3E0F6
:10278000FDA3E4F0A3EDF0804CEF4E700F9000EB52
:10279000E07009A3E0FD13135407801D9000EAE0E8
:1027A00070339000ECE0FD1313543F540FFB900086
:1027B000EBE075F010A42BFFEF9000EEF0A3E4F037
:1027C000ED75F040A4FF9000EDE0543F2FFFA3E033
:0D27D000F0A3E04FF09000EEE0FEA3E0FF6C
:0127DD0022D9
:041C6000AB07AA061E
:101C64009000C312078600000000AE02AF03E4FC3C
:101C7400FD9000C712077AE47F7FFEFDFC9000C749
:101C8400E0F8A3E0F9A3E0FAA3E0FBD312071950AC
:101C9400109000C7A3A3A3E0547FFFE4FEFD021F3E
:101CA400109000C7E0FCA3E0FDA3E0FEA3E0FFE486
:101CB4007B80FAF9F8D3120719506AE47FFF7E0794
:101CC400FDFC9000C7E0F8A3E0F9A3E0FAA3E0FB71
:101CD40012071950509000C7E0FCA3E0FDA3E0FEFA
:101CE400A3E0FF780612072AEF541FFFE4FEFDFC71
:101CF400EF44C0FFE4780812073D9000C312077A4E
:101D04009000C3E0F8A3E0F9A3E0FAA3E0FBA3A3E7
:101D1400A3A3E0543FFFEF4480FFEB4FFFEAFEE94B
:101D2400FDE8021F109000C7E0FCA3E0FDA3E0FE65
:101D3400A3E0FFE4FB7A08F9F8D312071940030281
:101D44001DFAE47FFF7EFFFDFC9000C7E0F8A3E0EE
:101D5400F9A3E0FAA3E0FB1207194003021DFA906D
:101D640000C7E0FCA3E0FDA3E0FEA3E0FF780C12B3
:101D7400072AEF540FFFE4FEFDFCEF44E0FFE47894
:101D84001012073D9000C312077A9000C3E0F8A335
:101D9400E0F9A3E0FAA3E0FBC000A3E0FCA3E0FDAC
:101DA400A3E0FEA3E0FF780612072AEF543FFFE406
:101DB400FEFDFCEF4480FFE4780812073DD000EB01
:101DC4004FFFEA4EFEE94DFDE84CFC9000C31207BC
:101DD4007A9000C3E0F8A3E0F9A3E0FAA3E0FBA340
:101DE400A3A3A3E0543FFFEF4480FFEB4FFFEAFEC1
:101DF400E9FDE8021F109000C7E0FCA3E0FDA3E0AA
:101E0400FEA3E0FFE4FBFA7901F8D31207194003BB
:101E1400021F177FFF7EFF7D1F7C009000C7E0F844
:101E2400A3E0F9A3E0FAA3E0FB1207194003021FA1
:101E3400179000C7E0FCA3E0FDA3E0FEA3E0FF7859
:101E44001212072AEF5407FFE4FEFDFCEF44F0FFF3
:101E5400E4781812073D9000C312077A9000C3E09B
:101E6400F8A3E0F9A3E0FAA3E0FBC000A3E0FCA31D
:101E7400E0FDA3E0FEA3E0FF780C12072AEF543F35
:101E8400FFE4FEFDFCEF4480FFE4781012073DD030
:101E940000EB4FFFEA4EFEE94DFDE84CFC9000C319
:101EA40012077A9000C3E0F8A3E0F9A3E0FAA3E0F4
:101EB400FBC000A3E0FCA3E0FDA3E0FEA3E0FF78E9
:101EC4000612072AEF543FFFE4FEFDFCEF4480FFB7
:101ED400E4780812073DD000EB4FFFEA4EFEE94DCF
:101EE400FDE84CFC9000C312077A9000C3E0F8A30D
:101EF400E0F9A3E0FAA3E0FBA3A3A3A3E0543FFF0C
:101F0400EF4480FFEB4FFFEAFEE9FDE8FC9000C3DD
:101F140012077A9000C3E0FCA3E0FDA3E0FEA3E077
:011F2400FFBD
:011F25002299
:102517009000D2EBF0A3EAF0A3E9F0A3E0FBA3E07D
:10252700FAA3E04A4B70030226139000D2E0FBA304
:10253700E0FAA3E0F912067E70030226139000D991
:10254700E024FB9000D8E034FFC3648094805003FC
:0325570002261346
:10255A009000DA12078600000000E49000DEF0A383
:10256A00F078E07C007D017BFF7A2E79EDFE7F0515
:10257A00120658E49000E5F09000E904F0A3740014
:10258A00F0A374DAF09000D2E0FBA3E0FAA3E0F93A
:10259A001223139000E5EFF09000DAE0FCA3E0FDCF
:1025AA00A3E0FEA3E0FF1226FA9000DEEEF0A3EF0E
:1025BA00F09000E974FFF0A3742EF0A374C1F0A3A5
:1025CA00EEF0A3EFF07B017A0079E0120B8E900017
:1025DA00E97401F0A37400F0A374E0F09000D5E070
:1025EA00FBA3E0FAA3E0F9122C639000E5E0FF9068
:1025FA0000D3E48FF01206D69000D9E024FCF090C4
:06260A0000D8E034FFF0EF
:04261000022531224C
:101F26009000AFEBF0A3EAF0A3E9F0A3E0FBA3E097
:101F3600FAA3E04A4B700302209A9000AFE0FBA39D
:101F4600E0FAA3E0F912067EFF122FDC400302201E
:101F56009A9000B6E024FB9000B5E034FFC364809D
:071F66009480500302209A51
:101F6D009000B712078600000000E49000BBF0A3BC
:101F7D00F078BD7C007D017BFF7A2E79F2FE7F0526
:101F8D00120658E49000C2F09000AFE0F9A3E0FA19
:101F9D00A3E09000C6C9F0A3EAF0A3E9F0A3E4F032
:101FAD00A37404F07B017A0079BD122CCE9000C68B
:101FBD0074FFF0A3742EF0A374C6F0A37401F0A304
:101FCD007400F0A374BBF07B017A0079BD1213B3DA
:101FDD009000BBE0FEA3E0FF121C60801C9000B7D8
:101FED00E0FCA3A3A3EC70199000B7A3E0FDA3E060
:101FFD00FEA3E0FF780812073D9000B712077A8024
:10200D00DC7E007F057D007B017A0079BD120AAD73
:10201D00E49000C2F09000C2E0C3940474809480F8
:10202D0050349000B7E0FCA3E0FDA3E0FEA3E0FF79
:10203D009000C2E0FBC374039B75F008A4F9F8127D
:10204D00072A74BD2BF582E43400F583EFF0900080
:10205D00C2E004F080BF9000E97401F0A37400F0B9
:10206D00A374BDF09000B2E0FBA3E0FAA3E0F91277
:10207D002C639000B0E475F0041206D69000B6E023
:0A208D0024FCF09000B5E034FFF0F1
:04209700021F4022C2
:10180100EFD3940340037FFF2274242F2FF8E620A7
:10181100E5F4C2AFE64430F6D2AFAE0CEEC39F5052
:10182100210E74192EF8E6F908E618BE030274FFBA
:10183100FDED69600909E71919F7090980F3161621
:1018410080DAEED39F400405810581EED39F4022CB
:1018510074192EF808E6F9EEB50C02A981180606EE
:10186100E6FDED6960091919E70909F71980F31E09
:1018710080D9EF2419F8E604F8EF2F0490000393C0
:09188100F608EF2F93F67F002218
:10188A00EFD3940340037FFF22EF232424F8E630AA
:10189A00E5F4C2AFE6548CF6D2AFE50CB5070A748C
:1018AA00192FF8E6F581021700502E741A2FF8E660
:1018BA00BF030274FFFD18E6F974192FF8FBE6FC62
:1018CA00E96C6008A805E7F61D1980F4A803A605C7
:1018DA001FE50CB507E37F0022741A2FF8E6FD18FE
:1018EA0086010F74192FF8A601088604E50CB507BE
:1018FA0002AC81ED6C60080D09A805E6F780F4E5F5
:09190A000CB507DE89817F002283
:101913008FF0E4FFFEE50C232423F8C2A930F70D72
:101923007F08E6600B2DF660325030800730F106F9
:10193300EDF660277E020830F010C2AFE610E7250F
:101943000E30E20CD2AF7F048014C2AFE610E7156D
:1019530054EC4EF6D2AFD2A90217007F0808EF4429
:0F19630083F4C2AF56C6D2AFD2A954804FFF2231
:10002600EC4D6011E8497017ED33EC3304600DE4D4
:10003600FCFFFEFD22E933E8330470F802021812D1
:1000460001E358046009E4CC2481500628500902D3
:10005600022228400302021FC0E0EB4A7044B98026
:1000660006D0E0FB02020EEF4E701CBD8008EBFFCF
:10007600EAFEE9FD80EBE98DF0A4FEE5F002010F52
:10008600E9CDF9EAFEEBFFEF89F0A4FCE5F0CE89B5
:10009600F0A42EFFE435F0CD89F0A42DFEE435F072
:1000A6008067EF4E7005BD80D780C3EF8BF0A4ACA0
:1000B600F0EE8BF0A42CFCE435F0F8EF8AF0A42CDB
:1000C600E5F038FCE433CB8DF0A42CFCE5F03BF8EE
:1000D600EE8AF0A42CFCE5F038F8E433CF89F0A4DE
:1000E6002CFCE5F038CF3400CE89F0A42FFFE5F0E4
:1000F6003EFEE433C98DF0A42EFEE5F039CD8AF03C
:10010600A42FFFE5F03EFEE43DFD33D0E0FB5007B3
:100116000BBB000F020222EC2CFCEF33FFEE33FE8A
:06012600ED33FD0201FAB9
:10012C0074F8CC6480CCC86480C8F58204604FC37A
:10013C00EB9FF5F0EA9E42F0E99D42F0E89C45F019
:10014C00603C501DE5825FFFE582D313CB5BCBF4A3
:10015C002B5582FB50280ABA002409B900200880CC
:10016C001DE5825BFBE582D313CF5FCFF4C3132F66
:10017C005582FF50090EBE00050DBD00010CC3EBEE
:10018C009FF5F0EA9E42F0E99D42F0E89C45F06054
:09019C0007CC4820E701B3EC2276
:1001A50075F020800E75F010800575F0087D007ED5
:1001B500007F003392D530D50312070BEC33401086
:1001C500EF33FFEE33FEED33FDEC33FCD5F0ED22DE
:0E01D500E5F0247EA2D513CC92E7CDCEFF221A
:100B2900E50E24E9F582E43400F583E0050E229010
:100B390000E63007039000E9E475F0011207CC02E2
:100B4900067E2000E97F2ED2008018EF540F2490F2
:100B5900D43440D4FF30040BEF24BFB41A0050033F
:100B69002461FFE50F6002150F0512E512700205F9
:100B79001130070E9000E6E475F0011207CCEF0280
:100B890006C40230A57403D2078003E4C207F50E38
:100B99009000E61207FAE4F50FF511F512E50F607A
:100BA900077F20120B6C80F57510FFC201C200C2CD
:100BB90002C203C205C206C208120B38FF700D300B
:100BC90007057F00120B7DAF12AE1122B4255FC25B
:100BD900D5C204120B38FF24D0B40A00501A75F09C
:100BE9000A780F30D50508B6FF0106C6A426F620F7
:100BF900D5047002D20380D924CFB41A00EF50046F
:100C0900C2E5D204020E6FD20180C6D20080C0D2E2
:100C19000280BCD2D580BAD20580B47F20120B6C79
:100C29002002077401B50F0040F1120B29FF120BC6
:100C39006C020BA6D208D2068095120B29FB120B67
:100C490029FA120B29F94A4B7006796D7A0F7BFF45
:100C590020022EE50F602A7E008E8275830012061F
:100C69009760060EEE651070F0C2D5EBC0E0EAC0E1
:100C7900E0E9C0E0EE120ED0D0E0F9D0E0FAD0E021
:100C8900FB12067EFF60AAEBC0E0EAC0E0E9C0E023
:100C9900120B6CD0E02401F9D0E03400FAD0E0FB6B
:100CA900E5100460DCD510D98087D20280A2120E2B
:100CB900B260F7E51070010412022DA910600DE56C
:100CC90010600914F510120F5AEF60F3EA30E702C9
:100CD900F404C3995079EAF425100430E701E404D7
:100CE900F510800D120EB260C1EA0510251012022E
:100CF9002DEA900115F030E701E4251004D5100420
:100D090020050114120ED0E4C0E0120F5A9001150B
:100D1900E0601320E70714F0120B54802204F0D08E
:100D2900E014C0E07F00120B54E5106007120B4B72
:100D39001510800B300503120B4BD0E0020BA6D027
:100D4900E00480C4120EB2609EE5100412022D90D8
:100D59000115EAF0E5102005026001042404120ED1
:010D6900D0B9
:100D6A0074FF04C0E0120F5A120B54E5102005025A
:100D7A006003120B4BD0E0B510E87F45120B5E9072
:100D8A000115E07F2B30E7047F2DF404C0E0120B3D
:100D9A006CD0E075F00A84C0F0120B55D0E0120B4B
:100DAA0055020BA6791080027908C206C20880088B
:100DBA00D2D5790A8004790AC2D5E510047002F501
:100DCA0010E4FAFDFEFF120B29FC7B082001131226
:100DDA000B29FD7B1030000A120B29FE120B29FF8A
:100DEA007B20EC3382D592D55013C3E43000069FA2
:100DFA00FFE49EFEE42001039DFDE49CFCE4CBF8A5
:100E0A00C201EC700CCFCECDCCE824F8F870F38098
:100E1A0017C3EF33FFEE33FEED33FDEC33FCEB3358
:100E2A00FB994002FB0FD8E9EB300105F8D0E0C48A
:100E3A0048B201C0E00AEC4D4E4F78207B0070C2E8
:100E4A00EAB5100040BCC0E0120ED2D0F0D0E020CB
:100E5A000104C4C0E0C4B201C0F0120B55D0F0D5F1
:100E6A00F0EB020BA61208030C43530DAE580C14F8
:100E7A004C0C10420DB24F0DBA440DBA490C29431D
:100E8A000DC0550CED460D4D450CB7470F8D500C56
:100E9A00182D0C1C2E0C3F2B0C20230C3D200F76FA
:100EAA002A0BD84800000C37E510B4FF037510066A
:100EBA00120B29FC120B29FD120B29FE120B29FF1A
:100ECA0090010E02026A790AA2D52003143005099C
:100EDA00B910020404B9080104A2D520060250017F
:100EEA00042002689202B50F005034C0E07F20301F
:100EFA0003197F30A20272067205500F120F29C21F
:100F0A0002C206C205C2087F30800F300503E9C05D
:100F1A00E0120B6C300503D0E0F9D0E0B50FCC300D
:100F2A0005177F30B9100C120B6C7F583004077FFD
:100F3A00788003B90803120B6C3002057F2D020B6F
:100F4A006C7F202008F87F2B2006F322920280CFA4
:100F5A007F00B40700500B240EF582E43401F583B8
:100F6A00E0FF22286E756C6C2900D201120B293021
:100F7A0001F8C201780F30D50108F6020BD82D50BE
:100F8A00434958120B292403B405004001E4900F89
:100F9A008893120B5D743A120B5DD203750F04022B
:020FAA000DAE8A
:10132A00E50E30030104F8232824C6F582E43400CC
:10133A00F583229000C33003039000C6E475F001E0
:10134A001207CC02067E60EAC5127002151114C596
:10135A0012200304FF02310E9000C374FFF5F0025D
:10136A0007E3FF023091E50F6006D50F037F0022E5
:10137A0020030F12307DEF60080512E51270020596
:10138A0011229000C31207C312067EFF60E8900084
:10139A00C3E475F0011207CC80DC12137AEFC0E0C7
:1013AA0012136CD0E040F3809DD2038002C20390F6
:1013BA0000C31207FAE4F510F50EF511F512750FD0
:1013CA0000C202C200C201C20412133DFF7005AF7F
:1013DA00107E0022B4253012133DFF24D0B40A0037
:1013EA00500C75F00AC50FA4250FF50F80E924CF1C
:1013FA00B41A00EF5002C2E5021650D20180D8D2C8
:10140A000080D4D20480D0EF12136C50081213A4B7
:10141A00EF600E80A9EFC0E012137AD0E06F609EF1
:10142A00EF607412135080A712137AEF6069E50F08
:10143A007007050F800312137AEF601420040E124E
:10144A00132AE475F0011207CCEF1206C4D50FE691
:10145A00200404050E051080BA121370EFC0E012C2
:10146A00136CD0E05004121350E4FF20040E121340
:10147A002AE475F0011207CCEF1206C4EF70DA20E5
:10148A000404050E0510808BE50F6002050F121388
:10149A00A4121370EF70C6300304E4121350E5105F
:1014AA0060030213D97EFF7FFF22E50F6002050F5A
:1014BA001213A4D206D205121370EF30060260D7B7
:1014CA00C0E0121350D0E0AC13AD14AE15AF161233
:1014DA0026278C138D148E158F16500712137AC275
:1014EA000580D4200410200502051012132A1207C1
:0314FA00C3050E19
:1014FD001207500213C8D0E0809A7900800A791043
:10150D00800679088002790AD205E50F6002050F81
:10151D00E9C0E01213A4EF60DD12137ABF2D04D2DF
:10152D00028003BF2B091213A4EF60CA121370D0EF
:10153D00E0B40A028033B40802802EBF3027700257
:10154D007408C205C0E0121370D0E0BF78028003AA
:10155D00BF5816050FD50F028007D50F04D2058091
:10156D000B741080197002740ABF000AEFF8E4FCC6
:10157D00FDFEFF021603C0E0EF121350D0E0F9E4B8
:10158D00FCFDFEFFE9C0E0ECC0E0EDC0E0EEC0E028
:10159D00EFC0E0121370EFF8D0E0FFD0E0FED0E026
:1015AD00FDD0E0FCD0F0E8604DB461004007B47BA5
:1015BD00005002C2E524D0503DFA24F6500724F91C
:1015CD005034240AFAEAB5F000502BCFA9F0A42F1D
:1015DD00FF92D5E9C5F0CEA4A2D53EFE92D5E9C5C0
:1015ED00F0CDA4A2D53DFD92D5E9C5F0CCA4A2D5F0
:1015FD003CFCC205808EE8C0E020042A20050805C9
:10160D001030020312070B12132A1207C3050E2006
:10161D00000B20010DEE8FF01206EC800912075021
:10162D008004EF1206C4D0E01213500213C8200438
:10163D001012132A1207C3050EE5118512F01206BA
:10164D00EC80E8120803149253150B5814094C142E
:10165D00054213E148150F4F151344143243150776
:10166D004915135514B44614B44514B447140D2A32
:07167D00163B4E00001411A2
:1001E300E9D2E7C933E833F892D5EDD2E7CD33EC62
:0701F30033FC5002B2D522DB
:1001FA00EC30E7100FBF000C0EBE00080DBD000466
:10020A000BEB6014A2D5EB13FCED92E7FD2274FF11
:10021A00FCFDFEFF22E480F8A2D574FF13FC7D806A
:03022A00E480EF7E
:10022D00F920E73624F950037907E4F42402FBE5BD
:10023D0082158270021583DBF6E024FB501BE9600A
:10024D0014E4F0E582158270021583E004F0B40A1F
:0D025D0008E4F0D9EE7401F00A22C2D522A7
:10026A00ED33EC3392D5FA602AB4FF33EDC2E77B63
:10027A00FF60067A02798FE4227A02799820D504FF
:10028A007A027993224E614E002B494E46002D493F
:10029A004E4600E47A08F0A3DAFC7B00740722C019
:1002AA0083C082ECC0E0EDC0E0EEC0E0EFC0E0EA5F
:1002BA0075F010A4CAABF075F04DA42BFBE435F031
:1002CA00FCEA2410FAEB34C5FBEC34D9FCEDC2E7A6
:1002DA00FF75F056A4F42411C5F0F434C58FF0A4C8
:1002EA002AE5F03BE43CF020E714120548D0E0FF91
:1002FA00D0E0FED0E0FDD0E0FC12046A8014F404E1
:10030A00120548D0E0FFD0E0FED0E0FDD0E0FC12BC
:10031A000026D082D083E0FAEDD2E7CD33EC332445
:10032A0082FBE4C3CF33CFCE33CECD33CD33DBF331
:10033A007B0775F00A846004F0A31B0AE5F0F0A3BA
:10034A008FF0740AA4FFACF08EF0740AA42CFEACF1
:10035A00F050010C8DF0740AA42CFDE435F0F0A3E2
:05036A00DBDE74072238
:10261400C207C208C209C20AF9E4F517F518FCFD9D
:10262400FEFFE91006EA20090CB42D04D209D322D6
:10263400B42B02D32224D0504794095041240A30A9
:102644000A15F88518F0740AA42872E74051C5F0F9
:10265400704D85F018D322D208C0E0E4FBFA79204B
:102664007841120026ECF8EDF9EEFAEFFBD0E0FC2D
:10267400E41201AF1203763007B41517D322240AEB
:10268400200A20B4FE0720071AD207D32224EB60C5
:102694000424E0700EA2099207D20AC209D322C30D
:1026A400020218E4300A0BE518300902F404A20708
:1026B40092093008EA251720D2E5A2E7920A5002CF
:1026C400F404B4260050D8CCC0E0EDC0E0EEC0E085
:1026D400EFC0E0EC120548D0E0FFD0E0FED0E0FD12
:1026E400D0E0FC200A05120026800312046A300997
:0626F40003120507C322DA
:10036F00020218E86480F8E933E83360110460F0A2
:10037F00ED33EC337009E8FCE9FDEAFEEBFF2204F4
:10038F0060DED3EB9FEA9EE99DE8C2E78CF0C2F7EF
:10039F0095F0400CE8CCF8E9CDF9EACEFAEBCFFBBB
:1003AF001201E385D0F05804700320D5B3E8047030
:1003BF00075002B2D502022292D5EC0460F7E4CCCA
:1003CF00C0E0C398F8603B94186008400DD0E0FB84
:1003DF000201FAE4FBFAC9FC8028E830E406E4C91C
:1003EF00FBE4CAFCE830E305E4C9CACBFCE85407D8
:1003FF006010F8C3E913F9EA13FAEB13FBEC13FCE3
:10040F00D8F130F52FC3E49CFCEF9BFFEE9AFEED85
:10041F0099FDD0E0FBEF4E4D4C701222DB03020230
:10042F001FEC2CFCEF33FFEE33FEED33FDED30E729
:10043F00EB0201FAEF2BFFEE3AFEED39FDD0E0FBB8
:10044F0050130BBB0003020222ED13FDEE13FEEF60
:08045F0013FFEC13FC0201FA8B
:10046700020222EC5D046005E859047003020218D9
:100477001201E3580460F6EC4860F2EC7004FDFEEC
:10048700FF22C860DB2481C85009C3986002500668
:1004970002021F9850CAF582E9294B4A7005AB82C0
:1004A70002020E75F0007C1A7880C3EF9BEE9AED7E
:1004B70099400DC3EF9BFFEE9AFEED99FDE842F0E0
:1004C700DC23ACF0D0E0FFD0E0FED0E0FDAB822033
:1004D700E7101BEB60BAEC2CFCEF33FFEE33FEEDBD
:1004E70033FD0201FAE803F830E705C0F075F000C4
:1004F700EF2FFFEE33FEED33FD40B830E7C280AAA1
:10050700ED33EC33600A047003BD8004ECB2E7FC02
:0105170022C1
:100518003F8000004120000042C80000447A0000EB
:10052800461C400047C35000497424004B1896806D
:100538004CBEBC205A0E1BCA6753C21C749DC5AE64
:10054800FB60065407601C2323120576EB543860C1
:1005580009120562120571120026ECF8EDF9EEFA9F
:10056800EFCB22EB12057180F1543803241C90055F
:1005780018FE93FC0EEE93FD0EEE930ECE93FF2223
:102A6C000217C4E493A3F8E493A34003F68001F2A5
:102A7C0008DFF48029E493A3F85407240CC8C3336B
:102A8C00C4540F4420C8834004F456800146F6DF3A
:102A9C00E4800B01020408102040809021DDE47ECC
:102AAC00019360BCA3FF543F30E509541FFEE4932F
:102ABC00A360010ECF54C025E060A840B8E493A3F6
:102ACC00FAE493A3F8E493A3C8C582C8CAC583CA21
:102ADC00F0A3C8C582C8CAC583CADFE9DEE780BED9
:0123120000CA
:10058800E709F608DFFA8046E709F208DFFA803E55
:1005980088828C83E709F0A3DFFA8032E309F60842
:1005A800DFFA8078E309F208DFFA807088828C83AA
:1005B800E309F0A3DFFA806489828A83E0A3F6085E
:1005C800DFFA805889828A83E0A3F208DFFA804C38
:1005D80080D280FA80C680D4806980F2803380100F
:1005E80080A680EA809A80A880DA80E280CA803378
:1005F80089828A83ECFAE493A3C8C582C8CCC583F0
:10060800CCF0A3C8C582C8CCC583CCDFE9DEE780BF
:100618000D89828A83E493A3F608DFF9ECFAA9F03E
:10062800EDFB2289828A83ECFAE0A3C8C582C8CC94
:10063800C583CCF0A3C8C582C8CCC583CCDFEADEAD
:10064800E880DB89828A83E493A3F208DFF980CC0F
:1006580088F0EF60010E4E60C388F0ED2402B40408
:100668000050B9F582EB2402B4040050AF232345AF
:0606780082239005D873F7
:10067E00BB010689828A83E0225002E722BBFE027A
:09068E00E32289828A83E49322AD
:10069700BB010CE58229F582E5833AF583E0225018
:1006A70006E92582F8E622BBFE06E92582F8E22262
:0D06B700E58229F582E5833AF583E493227C
:1006C400BB010689828A83F0225002F722BBFE0115
:0206D400F3220F
:1006D600C5F0F8A3E028F0C5F0F8E58215827002AF
:0606E6001583E038F0224C
:1006EC00BB010A89828A83F0E5F0A3F0225006F759
:0F06FC0009A7F01922BBFE06F3E5F009F3192256
:0E070B00C3E49FFFE49EFEE49DFDE49CFC22FF
:10071900EB9FF5F0EA9E42F0E99D42F0E89C45F036
:0107290022AD
:10072A00E8600FECC313FCED13FDEE13FEEF13FFAD
:03073A00D8F122D1
:10073D00E8600FEFC333FFEE33FEED33FDEC33FC1A
:03074D00D8F122BE
:10075000BB010789828A8302077A5005E9F8020BF8
:0A07600011BBFE05E9F8020B1D2293
:10076A00E493FC740193FD740293FE740393FF22D5
:0C077A00ECF0A3EDF0A3EEF0A3EFF022F2
:10078600A8828583F0D083D08212079D12079D121E
:10079600079D12079DE473E493A3C583C5F0C58343
:1007A600C8C582C8F0A3C583C5F0C583C8C582C8BD
:0107B6002220
:0C07B700A42582F582E5F03583F583224D
:0907C300E0FBA3E0FAA3E0F92237
:1007CC00F8E0FBA3A3E0F925F0F0E58215827002B6
:0707DC001583E0FA38F0225A
:1007E300F8E0FBA3A3E025F0F9F0E582158270029F
:0707F3001583E038FAF02243
:0907FA00EBF0A3EAF0A3E9F02200
:10080300D083D082F8E4937012740193700DA3A384
:1008130093F8740193F5828883E473740293686098
:06082300EFA3A3A380DF98
:10307D0010120B1230FBBF0D027F0A0230A590011A
:04308D008FE0FF22AF
:08310E0090018FEFF0D21222B4
:102FDC00EFC394414005EF945B4016EFC3946140FE
:102FEC0005EF947B400BEFC394304008EF943A50BC
:062FFC0003D38001C32293
:10309100EFC394094005EF940E4004EFB42003D32D
:0430A1008001C322C5
:102C63009000E6EBF0A3EAF0A3E9F09000ECEBF0C0
:102C7300A3EAF0A3E9F09000E6E0FBA3E475F0011A
:102C8300120AFBA9F0FA12067E70EB9000E774FFBC
:102C9300F5F01206D69000E9E0FBA3E475F001120B
:102CA3000AFBA9F0FA12067EFF9000E6E0FBA3E41C
:102CB30075F001120AFBA9F0FAEF1206C470D69060
:0B2CC30000ECE0FBA3E0FAA3E0F92224
:10082900E3F5F009E208B5F06D606B80F3E3F5F0EC
:1008390009E608B5F060605E80F387F009E608B55F
:10084900F054605280F487F009E208B5F048604638
:1008590080F488828C8387F009E0A3B5F03860368C
:1008690080F488828C8387F009E493A3B5F027602C
:100879002580F388828C83E3F5F009E0A3B5F016AF
:10088900601480F388828C83E3F5F009E493A3B5BF
:10089900F004600280F2020954808580E7808E802E
:1008A900D2803C8015806C807E809B80B5808B8057
:1008B900A1804F8070803A02096089828A83ECFAAC
:1008C900E493F5F0A3C8C582C8CCC583CCE493A34F
:1008D900C8C582C8CCC583CCB5F070606E80E1898B
:1008E900828A83E493F5F0A3E208B5F05E605C8048
:1008F900F289828A83E0F5F0A3E608B5F04D604BF2
:1009090080F389828A83E0F5F0A3E208B5F03C60C0
:100919003A80F389828A83E493F5F0A3E608B5F077
:100929002A602880F2805389828A83ECFAE493F55D
:10093900F0A3C8C582C8CCC583CCE0A3C8C582C80A
:10094900CCC583CCB5F004600280E27FFFB5F0022C
:100959000F2240027F012289828A83ECFAE0F5F0B6
:10096900A3C8C582C8CCC583CCE0A3C8C582C8CCFE
:10097900C583CCB5F0D560D380E389828A83ECFA4C
:10098900E0F5F0A3C8C582C8CCC583CCE493A3C85D
:10099900C582C8CCC583CCB5F0B160AF80E288F020
:1009A900ED2402B4040050A3F582EB2402B4040040
:0B09B900509923234582239008A2736D
:1009C400E709F60870FA8046E709F20870FA803EF3
:1009D40088828C83E709F0A370FA807EE309F60825
:1009E40070FA8076E309F20870FA806E88828C834C
:1009F400E309F0A370FA806289828A83E0A3F6088F
:100A040070FA805689828A83E0A3F20870FA804AD9
:100A140080D280FA80C680D4806580F280318010D4
:100A240080A680EA809A80A880DA80E280CA803139
:100A340089828A83ECFAE493A3C8C582C8CCC583AF
:100A4400CCF0A3C8C582C8CCC583CC70E9800D891D
:100A5400828A83E493A3F60870F9ECFAA9F0EDFB1B
:100A64002289828A83ECFAE0A3C8C582C8CCC583F4
:100A7400CCF0A3C8C582C8CCC583CC70EA80DD891C
:100A8400828A83E493A3F20870F980CE88F0ED247F
:100A940002B4040050C4F582EB2402B4040050BA3A
:090AA4002323458223900A1473F8
:102CCE009000C3EBF0A3EAF0A3E9F0E49000CBF0A0
:102CDE00A3F09000C974FFF5F0120AFB45F0603CBA
:102CEE009000C6E0FBA3E0FAA3E0F912067EFF9087
:102CFE0000C3E0FBA3E0FAA3E0F99000CBE475F08B
:102D0E0001120AFB85F082F583EF120AD9EF60C239
:102D1E009000C7E475F0011206D680B69000C3E0AD
:082D2E00FBA3E0FAA3E0F92287
:10000E00E4FFFE12067E600C0FEF70010E09E97020
:05001E00F20A80EF2250
:102993009000DBEBF0A3EAF0A3E9F0A3E0FBA3E0F4
:1029A300FAA3E0F912067E7003022A3F9000DBE0EF
:1029B300FBA3E0FAA3E0F912067E7003022A4B9010
:1029C30000DEE0F9A3E0FAA3E0A3C9F0A3EAF0A3D1
:1029D300E9F09000DBA3E0FAA3E0F99000E4EBF068
:1029E300A3EAF0A3E9F09000E1E0FBA3E0FAA3E09F
:1029F300F912067EFF60269000E4E0FBA3E0FAA351
:102A0300E0F912067E6F70159000E275F001120670
:102A1300D69000E5E475F0011206D680C99000E176
:102A2300E0FBA3E0FAA3E0F912067E7002800D90AA
:102A330000DCE475F0011206D60229AF9000DBE05A
:0F2A4300FBA3E0FAA3E0F9227B007A00790022DE
:100AAD00EF4E6012EF60010EEDBB010B89828A8360
:100ABD00F0A3DFFCDEFA2289F05007F709DFFCA96D
:0C0ACD00F022BBFEFCF309DFFCA9F022C4
:100AD900F8BB010DE58229F582E5833AF583E8F053
:100AE900225006E92582C8F622BBFE05E92582C8FF
:020AF900F222E7
:100AFB00A3F8E0C5F025F0F0E582158270021583AE
:060B0B00E0C838F0E8220A
:0C0B1100ECF608EDF608EEF608EFF62210
:0C0B1D00ECF208EDF208EEF208EFF22214
:0A30FB003098FDAF99C2987E0022C4
:00000001FF
